{"_format":"hh-sol-artifact-1","contractName":"Splitzy","sourceName":"contracts/Splitzy.sol","abi":[{"inputs":[{"internalType":"address","name":"_cUSDTokenAddress","type":"address"}],"stateMutability":"nonpayable","type":"constructor"},{"anonymous":false,"inputs":[{"indexed":false,"internalType":"uint256","name":"billId","type":"uint256"},{"indexed":false,"internalType":"uint256","name":"groupId","type":"uint256"},{"indexed":false,"internalType":"string","name":"title","type":"string"},{"indexed":false,"internalType":"uint256","name":"totalAmount","type":"uint256"}],"name":"BillCreated","type":"event"},{"anonymous":false,"inputs":[{"indexed":false,"internalType":"uint256","name":"billId","type":"uint256"},{"indexed":false,"internalType":"address","name":"payer","type":"address"},{"indexed":false,"internalType":"uint256","name":"amount","type":"uint256"}],"name":"BillPaid","type":"event"},{"anonymous":false,"inputs":[{"indexed":false,"internalType":"uint256","name":"groupId","type":"uint256"},{"indexed":false,"internalType":"string","name":"name","type":"string"},{"indexed":false,"internalType":"address","name":"creator","type":"address"}],"name":"GroupCreated","type":"event"},{"inputs":[],"name":"billCount","outputs":[{"internalType":"uint256","name":"","type":"uint256"}],"stateMutability":"view","type":"function"},{"inputs":[{"internalType":"uint256","name":"","type":"uint256"}],"name":"bills","outputs":[{"internalType":"uint256","name":"id","type":"uint256"},{"internalType":"uint256","name":"groupId","type":"uint256"},{"internalType":"string","name":"title","type":"string"},{"internalType":"uint256","name":"totalAmount","type":"uint256"},{"internalType":"address","name":"creator","type":"address"},{"internalType":"bool","name":"isSettled","type":"bool"}],"stateMutability":"view","type":"function"},{"inputs":[],"name":"cUSDToken","outputs":[{"internalType":"contract IERC20","name":"","type":"address"}],"stateMutability":"view","type":"function"},{"inputs":[],"name":"cUSDTokenAddress","outputs":[{"internalType":"address","name":"","type":"address"}],"stateMutability":"view","type":"function"},{"inputs":[{"internalType":"uint256","name":"_billId","type":"uint256"}],"name":"checkMyAmount","outputs":[{"internalType":"uint256","name":"amount","type":"uint256"},{"internalType":"bool","name":"hasPaid","type":"bool"}],"stateMutability":"view","type":"function"},{"inputs":[{"internalType":"uint256","name":"_groupId","type":"uint256"},{"internalType":"string","name":"_title","type":"string"},{"internalType":"uint256","name":"_totalAmount","type":"uint256"},{"internalType":"address[]","name":"_payees","type":"address[]"},{"internalType":"uint256[]","name":"_amounts","type":"uint256[]"}],"name":"createBill","outputs":[],"stateMutability":"nonpayable","type":"function"},{"inputs":[{"internalType":"string","name":"_name","type":"string"},{"internalType":"address[]","name":"_members","type":"address[]"}],"name":"createGroup","outputs":[],"stateMutability":"nonpayable","type":"function"},{"inputs":[{"internalType":"uint256","name":"_groupId","type":"uint256"}],"name":"getGroup","outputs":[{"internalType":"string","name":"name","type":"string"},{"internalType":"address[]","name":"members","type":"address[]"}],"stateMutability":"view","type":"function"},{"inputs":[],"name":"getMyBills","outputs":[{"internalType":"uint256[]","name":"","type":"uint256[]"}],"stateMutability":"view","type":"function"},{"inputs":[],"name":"groupCount","outputs":[{"internalType":"uint256","name":"","type":"uint256"}],"stateMutability":"view","type":"function"},{"inputs":[{"internalType":"uint256","name":"","type":"uint256"}],"name":"groups","outputs":[{"internalType":"uint256","name":"id","type":"uint256"},{"internalType":"string","name":"name","type":"string"}],"stateMutability":"view","type":"function"},{"inputs":[{"internalType":"uint256","name":"_billId","type":"uint256"}],"name":"payBill","outputs":[],"stateMutability":"nonpayable","type":"function"},{"inputs":[{"internalType":"address","name":"","type":"address"},{"internalType":"uint256","name":"","type":"uint256"}],"name":"userBills","outputs":[{"internalType":"uint256","name":"","type":"uint256"}],"stateMutability":"view","type":"function"}],"bytecode":"0x608060405234801561001057600080fd5b506040516122ae3803806122ae833981810160405281019061003291906100db565b806000806101000a81548173ffffffffffffffffffffffffffffffffffffffff021916908373ffffffffffffffffffffffffffffffffffffffff16021790555050610108565b600080fd5b600073ffffffffffffffffffffffffffffffffffffffff82169050919050565b60006100a88261007d565b9050919050565b6100b88161009d565b81146100c357600080fd5b50565b6000815190506100d5816100af565b92915050565b6000602082840312156100f1576100f0610078565b5b60006100ff848285016100c6565b91505092915050565b612197806101176000396000f3fe608060405234801561001057600080fd5b50600436106100cf5760003560e01c806374595c7e1161008c57806396324bd41161006657806396324bd41461021c578063ceb606541461024d578063cfbe575c1461027e578063f09751901461029a576100cf565b806374595c7e146101c25780638f1b7c68146101e05780638f23b326146101fe576100cf565b80630538086f146100d45780630ea86ad81461010557806328bdcde81461012357806341dc341214610158578063682ab743146101765780636c6ec1d8146101a6575b600080fd5b6100ee60048036038101906100e991906110ad565b6102b6565b6040516100fc929190611104565b60405180910390f35b61010d61036b565b60405161011a91906111ac565b60405180910390f35b61013d600480360381019061013891906110ad565b61038f565b60405161014f96959493929190611278565b60405180910390f35b610160610480565b60405161016d91906112e0565b60405180910390f35b610190600480360381019061018b9190611327565b610486565b60405161019d91906112e0565b60405180910390f35b6101c060048036038101906101bb9190611627565b6104b7565b005b6101ca61084d565b6040516101d791906116f6565b60405180910390f35b6101e8610873565b6040516101f591906117cf565b60405180910390f35b610206610908565b60405161021391906112e0565b60405180910390f35b610236600480360381019061023191906110ad565b61090e565b6040516102449291906117f1565b60405180910390f35b610267600480360381019061026291906110ad565b6109ba565b6040516102759291906118df565b60405180910390f35b61029860048036038101906102939190611916565b610afa565b005b6102b460048036038101906102af91906110ad565b610bc5565b005b60008060006005600085815260200190815260200160002090508060060160003373ffffffffffffffffffffffffffffffffffffffff1673ffffffffffffffffffffffffffffffffffffffff1681526020019081526020016000205492508060070160003373ffffffffffffffffffffffffffffffffffffffff1673ffffffffffffffffffffffffffffffffffffffff16815260200190815260200160002060009054906101000a900460ff16915050915091565b60008054906101000a900473ffffffffffffffffffffffffffffffffffffffff1681565b60056020528060005260406000206000915090508060000154908060010154908060020180546103be906119bd565b80601f01602080910402602001604051908101604052809291908181526020018280546103ea906119bd565b80156104375780601f1061040c57610100808354040283529160200191610437565b820191906000526020600020905b81548152906001019060200180831161041a57829003601f168201915b5050505050908060030154908060040160009054906101000a900473ffffffffffffffffffffffffffffffffffffffff16908060080160009054906101000a900460ff16905086565b60035481565b600660205281600052604060002081815481106104a257600080fd5b90600052602060002001600091509150505481565b6000600460008781526020019081526020016000206000015403610510576040517f08c379a000000000000000000000000000000000000000000000000000000000815260040161050790611a3a565b60405180910390fd5b8051825114610554576040517f08c379a000000000000000000000000000000000000000000000000000000000815260040161054b90611acc565b60405180910390fd5b6003600081548092919061056790611b1b565b9190505550600060056000600354815260200190815260200160002090506003548160000181905550858160010181905550848160020190816105aa9190611d05565b50838160030181905550338160040160006101000a81548173ffffffffffffffffffffffffffffffffffffffff021916908373ffffffffffffffffffffffffffffffffffffffff1602179055508281600501908051906020019061060f929190610fbc565b506000805b84518110156107c2578381815181106106305761062f611dd7565b5b602002602001015183600601600087848151811061065157610650611dd7565b5b602002602001015173ffffffffffffffffffffffffffffffffffffffff1673ffffffffffffffffffffffffffffffffffffffff1681526020019081526020016000208190555060008360070160008784815181106106b2576106b1611dd7565b5b602002602001015173ffffffffffffffffffffffffffffffffffffffff1673ffffffffffffffffffffffffffffffffffffffff16815260200190815260200160002060006101000a81548160ff02191690831515021790555083818151811061071e5761071d611dd7565b5b6020026020010151826107319190611e06565b91506006600086838151811061074a57610749611dd7565b5b602002602001015173ffffffffffffffffffffffffffffffffffffffff1673ffffffffffffffffffffffffffffffffffffffff16815260200190815260200160002060035490806001815401808255809150506001900390600052602060002001600090919091909150558080600101915050610614565b50848114610805576040517f08c379a00000000000000000000000000000000000000000000000000000000081526004016107fc90611eac565b60405180910390fd5b7f393e7ea898ef5afbfcceab1942029e91514125c4a9f58f39983c2ee4c74a21e060035488888860405161083c9493929190611ecc565b60405180910390a150505050505050565b600160009054906101000a900473ffffffffffffffffffffffffffffffffffffffff1681565b6060600660003373ffffffffffffffffffffffffffffffffffffffff1673ffffffffffffffffffffffffffffffffffffffff1681526020019081526020016000208054806020026020016040519081016040528092919081815260200182805480156108fe57602002820191906000526020600020905b8154815260200190600101908083116108ea575b5050505050905090565b60025481565b6004602052806000526040600020600091509050806000015490806001018054610937906119bd565b80601f0160208091040260200160405190810160405280929190818152602001828054610963906119bd565b80156109b05780601f10610985576101008083540402835291602001916109b0565b820191906000526020600020905b81548152906001019060200180831161099357829003601f168201915b5050505050905082565b606080600060046000858152602001908152602001600020905080600101816002018180546109e8906119bd565b80601f0160208091040260200160405190810160405280929190818152602001828054610a14906119bd565b8015610a615780601f10610a3657610100808354040283529160200191610a61565b820191906000526020600020905b815481529060010190602001808311610a4457829003601f168201915b5050505050915080805480602002602001604051908101604052809291908181526020018280548015610ae957602002820191906000526020600020905b8160009054906101000a900473ffffffffffffffffffffffffffffffffffffffff1673ffffffffffffffffffffffffffffffffffffffff1681526020019060010190808311610a9f575b505050505090509250925050915091565b60026000815480929190610b0d90611b1b565b91905055506040518060600160405280600254815260200183815260200182815250600460006002548152602001908152602001600020600082015181600001556020820151816001019081610b639190611d05565b506040820151816002019080519060200190610b80929190610fbc565b509050507f18c62fe73d1b8ec45d443cf56b0c4966349cbb70ab036ba3ebfb065932ad17b06002548333604051610bb993929190611f18565b60405180910390a15050565b60006005600083815260200190815260200160002090506000816000015403610c23576040517f08c379a0000000000000000000000000000000000000000000000000000000008152600401610c1a90611fa2565b60405180910390fd5b60008160060160003373ffffffffffffffffffffffffffffffffffffffff1673ffffffffffffffffffffffffffffffffffffffff1681526020019081526020016000205411610ca7576040517f08c379a0000000000000000000000000000000000000000000000000000000008152600401610c9e9061200e565b60405180910390fd5b8060070160003373ffffffffffffffffffffffffffffffffffffffff1673ffffffffffffffffffffffffffffffffffffffff16815260200190815260200160002060009054906101000a900460ff1615610d36576040517f08c379a0000000000000000000000000000000000000000000000000000000008152600401610d2d9061207a565b60405180910390fd5b60008160060160003373ffffffffffffffffffffffffffffffffffffffff1673ffffffffffffffffffffffffffffffffffffffff168152602001908152602001600020549050600160009054906101000a900473ffffffffffffffffffffffffffffffffffffffff1673ffffffffffffffffffffffffffffffffffffffff166323b872dd338460040160009054906101000a900473ffffffffffffffffffffffffffffffffffffffff16846040518463ffffffff1660e01b8152600401610dff9392919061209a565b6020604051808303816000875af1158015610e1e573d6000803e3d6000fd5b505050506040513d601f19601f82011682018060405250810190610e4291906120fd565b5060018260070160003373ffffffffffffffffffffffffffffffffffffffff1673ffffffffffffffffffffffffffffffffffffffff16815260200190815260200160002060006101000a81548160ff0219169083151502179055507f1160551d75c5991b99a017ccd357dc5f0c5d58b80138b93fc1867219af42889f833383604051610ed09392919061212a565b60405180910390a160006001905060005b8360050180549050811015610f9957836007016000856005018381548110610f0c57610f0b611dd7565b5b9060005260206000200160009054906101000a900473ffffffffffffffffffffffffffffffffffffffff1673ffffffffffffffffffffffffffffffffffffffff1673ffffffffffffffffffffffffffffffffffffffff16815260200190815260200160002060009054906101000a900460ff16610f8c5760009150610f99565b8080600101915050610ee1565b50808360080160006101000a81548160ff02191690831515021790555050505050565b828054828255906000526020600020908101928215611035579160200282015b828111156110345782518260006101000a81548173ffffffffffffffffffffffffffffffffffffffff021916908373ffffffffffffffffffffffffffffffffffffffff16021790555091602001919060010190610fdc565b5b5090506110429190611046565b5090565b5b8082111561105f576000816000905550600101611047565b5090565b6000604051905090565b600080fd5b600080fd5b6000819050919050565b61108a81611077565b811461109557600080fd5b50565b6000813590506110a781611081565b92915050565b6000602082840312156110c3576110c261106d565b5b60006110d184828501611098565b91505092915050565b6110e381611077565b82525050565b60008115159050919050565b6110fe816110e9565b82525050565b600060408201905061111960008301856110da565b61112660208301846110f5565b9392505050565b600073ffffffffffffffffffffffffffffffffffffffff82169050919050565b6000819050919050565b600061117261116d6111688461112d565b61114d565b61112d565b9050919050565b600061118482611157565b9050919050565b600061119682611179565b9050919050565b6111a68161118b565b82525050565b60006020820190506111c1600083018461119d565b92915050565b600081519050919050565b600082825260208201905092915050565b60005b838110156112015780820151818401526020810190506111e6565b60008484015250505050565b6000601f19601f8301169050919050565b6000611229826111c7565b61123381856111d2565b93506112438185602086016111e3565b61124c8161120d565b840191505092915050565b60006112628261112d565b9050919050565b61127281611257565b82525050565b600060c08201905061128d60008301896110da565b61129a60208301886110da565b81810360408301526112ac818761121e565b90506112bb60608301866110da565b6112c86080830185611269565b6112d560a08301846110f5565b979650505050505050565b60006020820190506112f560008301846110da565b92915050565b61130481611257565b811461130f57600080fd5b50565b600081359050611321816112fb565b92915050565b6000806040838503121561133e5761133d61106d565b5b600061134c85828601611312565b925050602061135d85828601611098565b9150509250929050565b600080fd5b600080fd5b7f4e487b7100000000000000000000000000000000000000000000000000000000600052604160045260246000fd5b6113a98261120d565b810181811067ffffffffffffffff821117156113c8576113c7611371565b5b80604052505050565b60006113db611063565b90506113e782826113a0565b919050565b600067ffffffffffffffff82111561140757611406611371565b5b6114108261120d565b9050602081019050919050565b82818337600083830152505050565b600061143f61143a846113ec565b6113d1565b90508281526020810184848401111561145b5761145a61136c565b5b61146684828561141d565b509392505050565b600082601f83011261148357611482611367565b5b813561149384826020860161142c565b91505092915050565b600067ffffffffffffffff8211156114b7576114b6611371565b5b602082029050602081019050919050565b600080fd5b60006114e06114db8461149c565b6113d1565b90508083825260208201905060208402830185811115611503576115026114c8565b5b835b8181101561152c57806115188882611312565b845260208401935050602081019050611505565b5050509392505050565b600082601f83011261154b5761154a611367565b5b813561155b8482602086016114cd565b91505092915050565b600067ffffffffffffffff82111561157f5761157e611371565b5b602082029050602081019050919050565b60006115a361159e84611564565b6113d1565b905080838252602082019050602084028301858111156115c6576115c56114c8565b5b835b818110156115ef57806115db8882611098565b8452602084019350506020810190506115c8565b5050509392505050565b600082601f83011261160e5761160d611367565b5b813561161e848260208601611590565b91505092915050565b600080600080600060a086880312156116435761164261106d565b5b600061165188828901611098565b955050602086013567ffffffffffffffff81111561167257611671611072565b5b61167e8882890161146e565b945050604061168f88828901611098565b935050606086013567ffffffffffffffff8111156116b0576116af611072565b5b6116bc88828901611536565b925050608086013567ffffffffffffffff8111156116dd576116dc611072565b5b6116e9888289016115f9565b9150509295509295909350565b600060208201905061170b6000830184611269565b92915050565b600081519050919050565b600082825260208201905092915050565b6000819050602082019050919050565b61174681611077565b82525050565b6000611758838361173d565b60208301905092915050565b6000602082019050919050565b600061177c82611711565b611786818561171c565b93506117918361172d565b8060005b838110156117c25781516117a9888261174c565b97506117b483611764565b925050600181019050611795565b5085935050505092915050565b600060208201905081810360008301526117e98184611771565b905092915050565b600060408201905061180660008301856110da565b8181036020830152611818818461121e565b90509392505050565b600081519050919050565b600082825260208201905092915050565b6000819050602082019050919050565b61185681611257565b82525050565b6000611868838361184d565b60208301905092915050565b6000602082019050919050565b600061188c82611821565b611896818561182c565b93506118a18361183d565b8060005b838110156118d25781516118b9888261185c565b97506118c483611874565b9250506001810190506118a5565b5085935050505092915050565b600060408201905081810360008301526118f9818561121e565b9050818103602083015261190d8184611881565b90509392505050565b6000806040838503121561192d5761192c61106d565b5b600083013567ffffffffffffffff81111561194b5761194a611072565b5b6119578582860161146e565b925050602083013567ffffffffffffffff81111561197857611977611072565b5b61198485828601611536565b9150509250929050565b7f4e487b7100000000000000000000000000000000000000000000000000000000600052602260045260246000fd5b600060028204905060018216806119d557607f821691505b6020821081036119e8576119e761198e565b5b50919050565b7f47726f757020646f6573206e6f742065786973742e0000000000000000000000600082015250565b6000611a246015836111d2565b9150611a2f826119ee565b602082019050919050565b60006020820190508181036000830152611a5381611a17565b9050919050565b7f50617965657320616e6420616d6f756e7473206c656e677468206d69736d617460008201527f63682e0000000000000000000000000000000000000000000000000000000000602082015250565b6000611ab66023836111d2565b9150611ac182611a5a565b604082019050919050565b60006020820190508181036000830152611ae581611aa9565b9050919050565b7f4e487b7100000000000000000000000000000000000000000000000000000000600052601160045260246000fd5b6000611b2682611077565b91507fffffffffffffffffffffffffffffffffffffffffffffffffffffffffffffffff8203611b5857611b57611aec565b5b600182019050919050565b60008190508160005260206000209050919050565b60006020601f8301049050919050565b600082821b905092915050565b600060088302611bc57fffffffffffffffffffffffffffffffffffffffffffffffffffffffffffffffff82611b88565b611bcf8683611b88565b95508019841693508086168417925050509392505050565b6000611c02611bfd611bf884611077565b61114d565b611077565b9050919050565b6000819050919050565b611c1c83611be7565b611c30611c2882611c09565b848454611b95565b825550505050565b600090565b611c45611c38565b611c50818484611c13565b505050565b5b81811015611c7457611c69600082611c3d565b600181019050611c56565b5050565b601f821115611cb957611c8a81611b63565b611c9384611b78565b81016020851015611ca2578190505b611cb6611cae85611b78565b830182611c55565b50505b505050565b600082821c905092915050565b6000611cdc60001984600802611cbe565b1980831691505092915050565b6000611cf58383611ccb565b9150826002028217905092915050565b611d0e826111c7565b67ffffffffffffffff811115611d2757611d26611371565b5b611d3182546119bd565b611d3c828285611c78565b600060209050601f831160018114611d6f5760008415611d5d578287015190505b611d678582611ce9565b865550611dcf565b601f198416611d7d86611b63565b60005b82811015611da557848901518255600182019150602085019450602081019050611d80565b86831015611dc25784890151611dbe601f891682611ccb565b8355505b6001600288020188555050505b505050505050565b7f4e487b7100000000000000000000000000000000000000000000000000000000600052603260045260246000fd5b6000611e1182611077565b9150611e1c83611077565b9250828201905080821115611e3457611e33611aec565b5b92915050565b7f53706c697420616d6f756e747320646f206e6f74206d6174636820746f74616c60008201527f2e00000000000000000000000000000000000000000000000000000000000000602082015250565b6000611e966021836111d2565b9150611ea182611e3a565b604082019050919050565b60006020820190508181036000830152611ec581611e89565b9050919050565b6000608082019050611ee160008301876110da565b611eee60208301866110da565b8181036040830152611f00818561121e565b9050611f0f60608301846110da565b95945050505050565b6000606082019050611f2d60008301866110da565b8181036020830152611f3f818561121e565b9050611f4e6040830184611269565b949350505050565b7f42696c6c20646f6573206e6f742065786973742e000000000000000000000000600082015250565b6000611f8c6014836111d2565b9150611f9782611f56565b602082019050919050565b60006020820190508181036000830152611fbb81611f7f565b9050919050565b7f596f7520646f6e2774206f776520616e797468696e672e000000000000000000600082015250565b6000611ff86017836111d2565b915061200382611fc2565b602082019050919050565b6000602082019050818103600083015261202781611feb565b9050919050565b7f416c726561647920706169642e00000000000000000000000000000000000000600082015250565b6000612064600d836111d2565b915061206f8261202e565b602082019050919050565b6000602082019050818103600083015261209381612057565b9050919050565b60006060820190506120af6000830186611269565b6120bc6020830185611269565b6120c960408301846110da565b949350505050565b6120da816110e9565b81146120e557600080fd5b50565b6000815190506120f7816120d1565b92915050565b6000602082840312156121135761211261106d565b5b6000612121848285016120e8565b91505092915050565b600060608201905061213f60008301866110da565b61214c6020830185611269565b61215960408301846110da565b94935050505056fea2646970667358221220629095ef7c8147fb21d5a5557fa162b3014da590a683af212a11fe04815df72464736f6c634300081c0033","linkReferences":{},"deployedLinkReferences":{}}